:1000000001308A008C290000FF00030E8301A1004B
:100010000A08A0008A010408A2007708A300780853
:10002000A4007908A5007A08A60003170D08031399
:10003000A70003170F080313A80003170C080313E6
:10004000A90003170E080313AA00831383128C3030
:100050008400801E2D288C1A4E2822088400230834
:10006000F7002408F8002508F9002608FA002708F8
:1000700003178D000313280803178F0003132908A3
:1000800003178C0003132A0803178E00031320089C
:100090008A00210E8300FF0E7F0E09008A110A12CA
:1000A0005F280A108A100A118207C034F934A43478
:1000B000B034993492348234F834803490348C1EC5
:1000C0005F281A08B50035087E3C031D69283714DF
:1000D00070282D3036078400831335088000B60A57
:1000E0008C128A110A122D28D232E420DF23F23238
:1000F000653742050D00D232E420DF2C6536EC373F
:1001000077218A0600014739E532EE205F29653202
:1001100042050D00D9326C36EF3BC12FD23264213B
:100120008A060000F701F801450803104618F70792
:10013000F70CF80CC618F707F70CF80C4619F70778
:10014000F70CF80CC619F707F70CF80C461AF70766
:10015000F70CF80CC61AF707F70CF80C461BF70754
:10016000F70CF80CC61BF707F70CF80C08000B0887
:10017000C3008B13831603178C170C1400000000A8
:1001800083120313C31B8B1703170C087F39031942
:100190000D290313C30003170D080313C40003172D
:1001A0000F080313C50043080C1ED4289900440807
:1001B00003178D000313450803178F0003130B0863
:1001C000C6008B13831603178C170C140000000055
:1001D00083120313C61B8B1703170C0D0E0D7F39EB
:1001E00003190D290313C30003170D080313C400DB
:1001F00003170F080313C50043080C1EFD289900C0
:10020000440803178D000313450803178F008D0A58
:1002100003198F0A0313B7280317031308004608AE
:10022000F8014502031817294508F7002329F701AB
:100230000830C700C50DF70D460877020318F70010
:10024000F80DC70B1A2908004408C5000A30C6007B
:100250000F2178085120F800B9004408C5000A3081
:10026000C6000F2177085120F800BA0008004408A2
:10027000C5000A30C6000F2178085120F800BB00E5
:100280004408C5000A30C6000F2177085120F80045
:10029000BC000800C401C4014408073C031C6229D7
:1002A000C31B5429081055290814831608108810F8
:1002B0008312881083168810831288140310C30DCC
:1002C000C40A4C2908003908C3004A213A08C3006F
:1002D0004A213B08C3004A213C08C3004A21831637
:1002E00008118312081183160811831208150800DB
:1002F000443084008313000803198B290230F8006E
:10030000F701F70B8129F80B80299730F700F70BDD
:100310008729800B7E29080003081F39830071306C
:1003200083168F000F08031787110C3003139900F1
:10033000A2309800903083129800B6013710FF3039
:10034000BD00831603170908C039890003131F1263
:100350009F120030031788008312870188018901EA
:1003600083130313AB01AC01713083168F000F08A8
:100370008312BE0183168C16C03083128B04371C87
:10038000042B30302D02C400C5000A30C600922074
:1003900030302E027807BF0030302F02C400C50075
:1003A0000A30C6009220303030027807C00030306A
:1003B0003102C400C5000A30C6009220303032023B
:1003C0007807C10030303302C400C5000A30C600CF
:1003D0009220303034027807C200BE013F083E024E
:1003E0000318342A743003178D0000308F00031374
:1003F000B7203D103D088316870083120714BD10F7
:100400003D0883168700831287103D113D0883162F
:10041000870083120711BD123D08831687008312DF
:1004200087163D123D088316870083120712BD11FF
:100430003D08831687008312871140083F07F800A4
:100440003E087802C300C40024213E083F02C300D6
:10045000C400372163210430C300FA30C40078217E
:10046000C30B2D2ABE0AEE29BE0140083E02031826
:10047000782A7B3003178D0000308F000313B720DC
:100480003D103D088316870083120714BD103D08F8
:1004900083168700831287103D113D08831687005D
:1004A000831207113D123D08831687008312071639
:1004B000BD123D088316870083128712BD113D08C7
:1004C00083168700831287113E084002C300C400D0
:1004D00024213E084002C300C400372163210430B8
:1004E000C300FA30C4007821C30B712ABE0A352A32
:1004F000BE0141083E020318BF2A833003178D0056
:1005000000308F000313B7203D113D08831687008C
:1005100083120715BD103D088316870083128710CC
:100520003D103D088316870083120710BD113D085A
:1005300083168700831287153D123D0883168700B6
:1005400083120712BD123D0883168700831287129B
:1005500042084107F8003E087802C300C400242185
:100560003E084102C300C400372163210430C300A8
:10057000FA30C4007821C30BB82ABE0A792ABE011A
:1005800042083E020318032B8A3003178D00003007
:100590008F000313B720BD103D0883168700831218
:1005A00087143D103D0883168700831207103D1104
:1005B0003D088316870083120711BD113D0883167D
:1005C0008700831287153D123D088316870083122A
:1005D0000712BD123D0883168700831287123E085A
:1005E0004202C300C40024213E084202C300C400EA
:1005F000372163210430C300FA30C4007821C30BD3
:0E060000FC2ABE0AC02A052BB429BF296300BC
:04400E00C42CFF3F80
:00000001FF
;PIC16F887
;CRC=C0AF  CREATED="02-May-18 01:40"
